{
  "contractName": "Election",
  "abi": [
    {
      "inputs": [
        {
          "internalType": "address",
          "name": "_owner",
          "type": "address"
        }
      ],
      "payable": false,
      "stateMutability": "nonpayable",
      "type": "constructor"
    },
    {
      "anonymous": false,
      "inputs": [
        {
          "indexed": false,
          "internalType": "string",
          "name": "_candidate",
          "type": "string"
        }
      ],
      "name": "CandidateAdd",
      "type": "event"
    },
    {
      "anonymous": false,
      "inputs": [
        {
          "indexed": false,
          "internalType": "uint256",
          "name": "id",
          "type": "uint256"
        },
        {
          "indexed": false,
          "internalType": "string",
          "name": "_candidate",
          "type": "string"
        },
        {
          "indexed": false,
          "internalType": "uint256",
          "name": "voteCount",
          "type": "uint256"
        }
      ],
      "name": "Voted",
      "type": "event"
    },
    {
      "constant": true,
      "inputs": [
        {
          "internalType": "uint256",
          "name": "",
          "type": "uint256"
        }
      ],
      "name": "candidates",
      "outputs": [
        {
          "internalType": "uint256",
          "name": "cnt",
          "type": "uint256"
        },
        {
          "internalType": "string",
          "name": "name",
          "type": "string"
        }
      ],
      "payable": false,
      "stateMutability": "view",
      "type": "function"
    },
    {
      "constant": false,
      "inputs": [
        {
          "internalType": "string",
          "name": "_candidate",
          "type": "string"
        }
      ],
      "name": "addCandidate",
      "outputs": [],
      "payable": false,
      "stateMutability": "nonpayable",
      "type": "function"
    },
    {
      "constant": false,
      "inputs": [
        {
          "internalType": "uint256",
          "name": "index",
          "type": "uint256"
        }
      ],
      "name": "vote",
      "outputs": [],
      "payable": false,
      "stateMutability": "nonpayable",
      "type": "function"
    },
    {
      "constant": true,
      "inputs": [],
      "name": "totalCandidate",
      "outputs": [
        {
          "internalType": "uint256",
          "name": "",
          "type": "uint256"
        }
      ],
      "payable": false,
      "stateMutability": "view",
      "type": "function"
    },
    {
      "constant": true,
      "inputs": [],
      "name": "getCandidate",
      "outputs": [
        {
          "components": [
            {
              "internalType": "uint256",
              "name": "cnt",
              "type": "uint256"
            },
            {
              "internalType": "string",
              "name": "name",
              "type": "string"
            }
          ],
          "internalType": "struct Election.Candidate[]",
          "name": "",
          "type": "tuple[]"
        }
      ],
      "payable": false,
      "stateMutability": "view",
      "type": "function"
    }
  ],
  "bytecode": "0x608060405234801561001057600080fd5b50604051610c4f380380610c4f8339818101604052610032919081019061008e565b80600260006101000a81548173ffffffffffffffffffffffffffffffffffffffff021916908373ffffffffffffffffffffffffffffffffffffffff16021790555050610100565b600081519050610088816100e9565b92915050565b6000602082840312156100a057600080fd5b60006100ae84828501610079565b91505092915050565b60006100c2826100c9565b9050919050565b600073ffffffffffffffffffffffffffffffffffffffff82169050919050565b6100f2816100b7565b81146100fd57600080fd5b50565b610b408061010f6000396000f3fe608060405234801561001057600080fd5b50600436106100575760003560e01c80630121b93f1461005c5780631812dab4146100785780633477ee2e14610096578063462e91ec146100c757806370218b85146100e3575b600080fd5b61007660048036036100719190810190610696565b610101565b005b610080610266565b60405161008d9190610921565b60405180910390f35b6100b060048036036100ab9190810190610696565b610272565b6040516100be92919061093c565b60405180910390f35b6100e160048036036100dc9190810190610655565b61033b565b005b6100eb61043c565b6040516100f891906108dd565b60405180910390f35b6000805490508110801561015f5750600160003373ffffffffffffffffffffffffffffffffffffffff1673ffffffffffffffffffffffffffffffffffffffff16815260200190815260200160002060009054906101000a900460ff16155b61016857600080fd5b6000818154811061017557fe5b90600052602060002090600202016000016000815480929190600101919050555060018060003373ffffffffffffffffffffffffffffffffffffffff1673ffffffffffffffffffffffffffffffffffffffff16815260200190815260200160002060006101000a81548160ff0219169083151502179055507f028a04db5122a3f60c09cf68b0f127286b81b8bb165fbd91d98602231b89e474816000838154811061021c57fe5b90600052602060002090600202016001016000848154811061023a57fe5b90600052602060002090600202016000015460405161025b9392919061096c565b60405180910390a150565b60008080549050905090565b6000818154811061027f57fe5b9060005260206000209060020201600091509050806000015490806001018054600181600116156101000203166002900480601f0160208091040260200160405190810160405280929190818152602001828054600181600116156101000203166002900480156103315780601f1061030657610100808354040283529160200191610331565b820191906000526020600020905b81548152906001019060200180831161031457829003601f168201915b5050505050905082565b600260009054906101000a900473ffffffffffffffffffffffffffffffffffffffff1673ffffffffffffffffffffffffffffffffffffffff163373ffffffffffffffffffffffffffffffffffffffff161461039557600080fd5b600060405180604001604052806000815260200183815250908060018154018082558091505090600182039060005260206000209060020201600090919290919091506000820151816000015560208201518160010190805190602001906103fe929190610547565b505050507fd1da06948b04e65cb2a7dd4dace64f0c6bf6a3583d2e2a4b90320e26caa2a5868160405161043191906108ff565b60405180910390a150565b60606000805480602002602001604051908101604052809291908181526020016000905b8282101561053e578382906000526020600020906002020160405180604001604052908160008201548152602001600182018054600181600116156101000203166002900480601f0160208091040260200160405190810160405280929190818152602001828054600181600116156101000203166002900480156105265780601f106104fb57610100808354040283529160200191610526565b820191906000526020600020905b81548152906001019060200180831161050957829003601f168201915b50505050508152505081526020019060010190610460565b50505050905090565b828054600181600116156101000203166002900490600052602060002090601f016020900481019282601f1061058857805160ff19168380011785556105b6565b828001600101855582156105b6579182015b828111156105b557825182559160200191906001019061059a565b5b5090506105c391906105c7565b5090565b6105e991905b808211156105e55760008160009055506001016105cd565b5090565b90565b600082601f8301126105fd57600080fd5b813561061061060b826109d7565b6109aa565b9150808252602083016020830185838301111561062c57600080fd5b610637838284610a93565b50505092915050565b60008135905061064f81610ae6565b92915050565b60006020828403121561066757600080fd5b600082013567ffffffffffffffff81111561068157600080fd5b61068d848285016105ec565b91505092915050565b6000602082840312156106a857600080fd5b60006106b684828501610640565b91505092915050565b60006106cb8383610882565b905092915050565b60006106de82610a28565b6106e88185610a56565b9350836020820285016106fa85610a03565b8060005b85811015610736578484038952815161071785826106bf565b945061072283610a49565b925060208a019950506001810190506106fe565b50829750879550505050505092915050565b600061075382610a3e565b61075d8185610a78565b935061076d818560208601610aa2565b61077681610ad5565b840191505092915050565b600061078c82610a33565b6107968185610a67565b93506107a6818560208601610aa2565b6107af81610ad5565b840191505092915050565b60006107c582610a33565b6107cf8185610a78565b93506107df818560208601610aa2565b6107e881610ad5565b840191505092915050565b60008154600181166000811461081057600181146108365761087a565b607f60028304166108218187610a78565b955060ff19831686526020860193505061087a565b600282046108448187610a78565b955061084f85610a13565b60005b8281101561087157815481890152600182019150602081019050610852565b80880195505050505b505092915050565b600060408301600083015161089a60008601826108bf565b50602083015184820360208601526108b28282610781565b9150508091505092915050565b6108c881610a89565b82525050565b6108d781610a89565b82525050565b600060208201905081810360008301526108f781846106d3565b905092915050565b600060208201905081810360008301526109198184610748565b905092915050565b600060208201905061093660008301846108ce565b92915050565b600060408201905061095160008301856108ce565b818103602083015261096381846107ba565b90509392505050565b600060608201905061098160008301866108ce565b818103602083015261099381856107f3565b90506109a260408301846108ce565b949350505050565b6000604051905081810181811067ffffffffffffffff821117156109cd57600080fd5b8060405250919050565b600067ffffffffffffffff8211156109ee57600080fd5b601f19601f8301169050602081019050919050565b6000819050602082019050919050565b60008190508160005260206000209050919050565b600081519050919050565b600081519050919050565b600081519050919050565b6000602082019050919050565b600082825260208201905092915050565b600082825260208201905092915050565b600082825260208201905092915050565b6000819050919050565b82818337600083830152505050565b60005b83811015610ac0578082015181840152602081019050610aa5565b83811115610acf576000848401525b50505050565b6000601f19601f8301169050919050565b610aef81610a89565b8114610afa57600080fd5b5056fea365627a7a72315820bf57541c7dc0ddf14ca449a167767bd1c847090be9041a015e7e3963e3cc56886c6578706572696d656e74616cf564736f6c63430005100040",
  "source": "pragma solidity >=0.4.22 <0.9.0;\r\npragma experimental ABIEncoderV2;\r\n\r\ncontract Election {\r\n    struct Candidate {\r\n        uint cnt;\r\n        string name;\r\n    }\r\n    Candidate[] public candidates;\r\n    mapping(address => bool) isVoted;\r\n    address owner;\r\n\r\n    event CandidateAdd(string _candidate);\r\n    event Voted(uint id, string _candidate, uint voteCount);\r\n\r\n    modifier onlyOwner() {\r\n        require(msg.sender == owner);\r\n        _;\r\n    }\r\n\r\n    constructor(address _owner) public {\r\n        owner = _owner;\r\n    }\r\n\r\n    function addCandidate(string memory _candidate) public onlyOwner {\r\n        candidates.push(Candidate(0, _candidate));\r\n        emit CandidateAdd(_candidate);\r\n    }\r\n\r\n    function vote(uint index) public {\r\n        require(index < candidates.length && !isVoted[msg.sender]);\r\n        candidates[index].cnt++;\r\n        isVoted[msg.sender] = true;\r\n        emit Voted(index, candidates[index].name, candidates[index].cnt);\r\n    }\r\n\r\n    function totalCandidate() public view returns(uint) {\r\n        return candidates.length;\r\n    }\r\n\r\n    function getCandidate() public view returns (Candidate[] memory) {\r\n       \r\n        return candidates;\r\n    }\r\n\r\n\r\n}",
  "sourcePath": "G:/Project/Ethereum/DAPP/Election/contracts/Election.sol",
  "compiler": {
    "name": "solc",
    "version": "0.5.16+commit.9c3226ce.Emscripten.clang"
  },
  "schemaVersion": "3.4.1",
  "updatedAt": "2021-06-27T04:30:33.427Z",
  "networkType": "ethereum",
  "devdoc": {
    "methods": {}
  },
  "userdoc": {
    "methods": {}
  }
}